{
    "abi": [
        {
            "type": "constructor",
            "inputs": [
                {
                    "name": "_kycRegistry",
                    "type": "address",
                    "internalType": "address"
                }
            ],
            "stateMutability": "nonpayable"
        },
        {
            "type": "function",
            "name": "activeBonds",
            "inputs": [
                {
                    "name": "",
                    "type": "address",
                    "internalType": "address"
                }
            ],
            "outputs": [
                {
                    "name": "",
                    "type": "address",
                    "internalType": "address"
                }
            ],
            "stateMutability": "view"
        },
        {
            "type": "function",
            "name": "bonds",
            "inputs": [
                {
                    "name": "",
                    "type": "uint256",
                    "internalType": "uint256"
                }
            ],
            "outputs": [
                {
                    "name": "bondPool",
                    "type": "address",
                    "internalType": "address"
                },
                {
                    "name": "issuer",
                    "type": "address",
                    "internalType": "address"
                },
                {
                    "name": "fundAmount",
                    "type": "uint256",
                    "internalType": "uint256"
                },
                {
                    "name": "interestRate",
                    "type": "uint256",
                    "internalType": "uint256"
                },
                {
                    "name": "description",
                    "type": "string",
                    "internalType": "string"
                }
            ],
            "stateMutability": "view"
        },
        {
            "type": "function",
            "name": "createBond",
            "inputs": [
                {
                    "name": "fundAmount",
                    "type": "uint256",
                    "internalType": "uint256"
                },
                {
                    "name": "interestRate",
                    "type": "uint256",
                    "internalType": "uint256"
                },
                {
                    "name": "bondDescription",
                    "type": "string",
                    "internalType": "string"
                }
            ],
            "outputs": [],
            "stateMutability": "nonpayable"
        },
        {
            "type": "function",
            "name": "currentBondId",
            "inputs": [],
            "outputs": [
                {
                    "name": "",
                    "type": "uint256",
                    "internalType": "uint256"
                }
            ],
            "stateMutability": "view"
        },
        {
            "type": "function",
            "name": "getBondDetails",
            "inputs": [
                {
                    "name": "bondId",
                    "type": "uint256",
                    "internalType": "uint256"
                }
            ],
            "outputs": [
                {
                    "name": "",
                    "type": "tuple",
                    "internalType": "struct BondFactory.BondDetails",
                    "components": [
                        {
                            "name": "bondPool",
                            "type": "address",
                            "internalType": "address"
                        },
                        {
                            "name": "issuer",
                            "type": "address",
                            "internalType": "address"
                        },
                        {
                            "name": "fundAmount",
                            "type": "uint256",
                            "internalType": "uint256"
                        },
                        {
                            "name": "interestRate",
                            "type": "uint256",
                            "internalType": "uint256"
                        },
                        {
                            "name": "description",
                            "type": "string",
                            "internalType": "string"
                        }
                    ]
                }
            ],
            "stateMutability": "view"
        },
        {
            "type": "function",
            "name": "getBondPoolAddress",
            "inputs": [
                {
                    "name": "bondIssuer",
                    "type": "address",
                    "internalType": "address"
                }
            ],
            "outputs": [
                {
                    "name": "",
                    "type": "address",
                    "internalType": "address"
                }
            ],
            "stateMutability": "view"
        },
        {
            "type": "function",
            "name": "getRemainingBondRepayment",
            "inputs": [
                {
                    "name": "bondIssuer",
                    "type": "address",
                    "internalType": "address"
                }
            ],
            "outputs": [
                {
                    "name": "",
                    "type": "uint256",
                    "internalType": "uint256"
                }
            ],
            "stateMutability": "view"
        },
        {
            "type": "function",
            "name": "kycRegistry",
            "inputs": [],
            "outputs": [
                {
                    "name": "",
                    "type": "address",
                    "internalType": "contract KYCRegistry"
                }
            ],
            "stateMutability": "view"
        },
        {
            "type": "function",
            "name": "owner",
            "inputs": [],
            "outputs": [
                {
                    "name": "",
                    "type": "address",
                    "internalType": "address"
                }
            ],
            "stateMutability": "view"
        },
        {
            "type": "function",
            "name": "renounceOwnership",
            "inputs": [],
            "outputs": [],
            "stateMutability": "nonpayable"
        },
        {
            "type": "function",
            "name": "transferOwnership",
            "inputs": [
                {
                    "name": "newOwner",
                    "type": "address",
                    "internalType": "address"
                }
            ],
            "outputs": [],
            "stateMutability": "nonpayable"
        },
        {
            "type": "event",
            "name": "BondCreated",
            "inputs": [
                {
                    "name": "bondId",
                    "type": "uint256",
                    "indexed": true,
                    "internalType": "uint256"
                },
                {
                    "name": "bondPool",
                    "type": "address",
                    "indexed": true,
                    "internalType": "address"
                },
                {
                    "name": "issuer",
                    "type": "address",
                    "indexed": true,
                    "internalType": "address"
                },
                {
                    "name": "fundAmount",
                    "type": "uint256",
                    "indexed": false,
                    "internalType": "uint256"
                },
                {
                    "name": "interestRate",
                    "type": "uint256",
                    "indexed": false,
                    "internalType": "uint256"
                },
                {
                    "name": "description",
                    "type": "string",
                    "indexed": false,
                    "internalType": "string"
                }
            ],
            "anonymous": false
        },
        {
            "type": "event",
            "name": "OwnershipTransferred",
            "inputs": [
                {
                    "name": "previousOwner",
                    "type": "address",
                    "indexed": true,
                    "internalType": "address"
                },
                {
                    "name": "newOwner",
                    "type": "address",
                    "indexed": true,
                    "internalType": "address"
                }
            ],
            "anonymous": false
        },
        {
            "type": "error",
            "name": "OwnableInvalidOwner",
            "inputs": [
                {
                    "name": "owner",
                    "type": "address",
                    "internalType": "address"
                }
            ]
        },
        {
            "type": "error",
            "name": "OwnableUnauthorizedAccount",
            "inputs": [
                {
                    "name": "account",
                    "type": "address",
                    "internalType": "address"
                }
            ]
        }
    ],
    "bytecode": {
        "object": "0x608060405234801561001057600080fd5b5060405161221438038061221483398101604081905261002f916100d9565b338061005557604051631e4fbdf760e01b81526000600482015260240160405180910390fd5b61005e81610089565b50600180546001600160a01b0319166001600160a01b03929092169190911790556000600455610109565b600080546001600160a01b038381166001600160a01b0319831681178455604051919092169283917f8be0079c531659141344cd1fd0a4f28419497f9722a3daafe3b4186f6b6457e09190a35050565b6000602082840312156100eb57600080fd5b81516001600160a01b038116811461010257600080fd5b9392505050565b6120fc806101186000396000f3fe608060405234801561001057600080fd5b50600436106100a95760003560e01c8063715018a611610071578063715018a6146101705780637541addc1461017a5780638da5cb5b14610183578063ad39837c14610194578063bf027540146101c0578063f2fde38b146101d357600080fd5b80630436f2f6146100ae5780632a6f2312146100d7578063444e503b146100f85780634b155b97146101395780635f1c17c01461014c575b600080fd5b6100c16100bc36600461093c565b6101e6565b6040516100ce919061099b565b60405180910390f35b6100ea6100e53660046109ee565b61035d565b6040519081526020016100ce565b6101216101063660046109ee565b6002602052600090815260409020546001600160a01b031681565b6040516001600160a01b0390911681526020016100ce565b600154610121906001600160a01b031681565b61015f61015a36600461093c565b6103fe565b6040516100ce959493929190610a1e565b6101786104c4565b005b6100ea60045481565b6000546001600160a01b0316610121565b6101216101a23660046109ee565b6001600160a01b039081166000908152600260205260409020541690565b6101786101ce366004610a79565b6104d8565b6101786101e13660046109ee565b610874565b61022a6040518060a0016040528060006001600160a01b0316815260200160006001600160a01b031681526020016000815260200160008152602001606081525090565b60045482106102715760405162461bcd60e51b815260206004820152600e60248201526d125b9d985b1a5908189bdb99125960921b60448201526064015b60405180910390fd5b600082815260036020818152604092839020835160a08101855281546001600160a01b039081168252600183015416928101929092526002810154938201939093529082015460608201526004820180549192916080840191906102d490610b45565b80601f016020809104026020016040519081016040528092919081815260200182805461030090610b45565b801561034d5780601f106103225761010080835404028352916020019161034d565b820191906000526020600020905b81548152906001019060200180831161033057829003601f168201915b5050505050815250509050919050565b6001600160a01b0380821660009081526002602052604081205490911680156103ef576000819050806001600160a01b031663b99a07ae6040518163ffffffff1660e01b8152600401602060405180830381865afa1580156103c3573d6000803e3d6000fd5b505050506040513d601f19601f820116820180604052508101906103e79190610b79565b949350505050565b50600092915050565b50919050565b6003602081905260009182526040909120805460018201546002830154938301546004840180546001600160a01b03948516969490931694919261044190610b45565b80601f016020809104026020016040519081016040528092919081815260200182805461046d90610b45565b80156104ba5780601f1061048f576101008083540402835291602001916104ba565b820191906000526020600020905b81548152906001019060200180831161049d57829003601f168201915b5050505050905085565b6104cc6108b2565b6104d660006108df565b565b6000831161051e5760405162461bcd60e51b8152602060048201526013602482015272125b9d985b1a5908199d5b9908185b5bdd5b9d606a1b6044820152606401610268565b6000821161056e5760405162461bcd60e51b815260206004820152601960248201527f496e7465726573742072617465206d757374206265203e2030000000000000006044820152606401610268565b60015460405163cf0e0f9d60e01b81523360048201526001600160a01b039091169063cf0e0f9d90602401602060405180830381865afa1580156105b6573d6000803e3d6000fd5b505050506040513d601f19601f820116820180604052508101906105da9190610b92565b6106165760405162461bcd60e51b815260206004820152600d60248201526c12d650c81b9bdd081d985b1a59609a1b6044820152606401610268565b336000908152600260205260409020546001600160a01b0316156107185733600090815260026020908152604091829020548251639a2356c160e01b815292516001600160a01b03909116928392639a2356c1926004808401938290030181865afa158015610689573d6000803e3d6000fd5b505050506040513d601f19601f820116820180604052508101906106ad9190610b92565b6106f95760405162461bcd60e51b815260206004820152601c60248201527f41637469766520626f6e64206e6f742066756c6c7920726570616964000000006044820152606401610268565b5033600090815260026020526040902080546001600160a01b03191690555b60003384848460405161072a9061092f565b6107379493929190610bb4565b604051809103906000f080158015610753573d6000803e3d6000fd5b506040805160a0810182526001600160a01b0380841682523360208084019182528385018a8152606085018a8152608086018a815260048054600090815260039586905298909820875181549088166001600160a01b03199182161782559551600182018054919098169616959095179095559051600284015551908201559051939450909290918201906107e89082610c3a565b5050336000818152600260205260409081902080546001600160a01b0319166001600160a01b0386169081179091556004549151929350917ff41a10745e29a0f54078f0b886000cc90e3814c9a586e74feda94b58a5f2a3339061085190899089908990610cf9565b60405180910390a46004805490600061086983610d21565b919050555050505050565b61087c6108b2565b6001600160a01b0381166108a657604051631e4fbdf760e01b815260006004820152602401610268565b6108af816108df565b50565b6000546001600160a01b031633146104d65760405163118cdaa760e01b8152336004820152602401610268565b600080546001600160a01b038381166001600160a01b0319831681178455604051919092169283917f8be0079c531659141344cd1fd0a4f28419497f9722a3daafe3b4186f6b6457e09190a35050565b61137e80610d4983390190565b60006020828403121561094e57600080fd5b5035919050565b6000815180845260005b8181101561097b5760208185018101518683018201520161095f565b506000602082860101526020601f19601f83011685010191505092915050565b6020815260018060a01b03825116602082015260018060a01b03602083015116604082015260408201516060820152606082015160808201526000608083015160a0808401526103e760c0840182610955565b600060208284031215610a0057600080fd5b81356001600160a01b0381168114610a1757600080fd5b9392505050565b6001600160a01b03868116825285166020820152604081018490526060810183905260a060808201819052600090610a5890830184610955565b979650505050505050565b634e487b7160e01b600052604160045260246000fd5b600080600060608486031215610a8e57600080fd5b8335925060208401359150604084013567ffffffffffffffff811115610ab357600080fd5b8401601f81018613610ac457600080fd5b803567ffffffffffffffff811115610ade57610ade610a63565b604051601f8201601f19908116603f0116810167ffffffffffffffff81118282101715610b0d57610b0d610a63565b604052818152828201602001881015610b2557600080fd5b816020840160208301376000602083830101528093505050509250925092565b600181811c90821680610b5957607f821691505b6020821081036103f857634e487b7160e01b600052602260045260246000fd5b600060208284031215610b8b57600080fd5b5051919050565b600060208284031215610ba457600080fd5b81518015158114610a1757600080fd5b60018060a01b0385168152836020820152826040820152608060608201526000610be16080830184610955565b9695505050505050565b601f821115610c3557806000526020600020601f840160051c81016020851015610c125750805b601f840160051c820191505b81811015610c325760008155600101610c1e565b50505b505050565b815167ffffffffffffffff811115610c5457610c54610a63565b610c6881610c628454610b45565b84610beb565b6020601f821160018114610c9c5760008315610c845750848201515b600019600385901b1c1916600184901b178455610c32565b600084815260208120601f198516915b82811015610ccc5787850151825560209485019460019092019101610cac565b5084821015610cea5786840151600019600387901b60f8161c191681555b50505050600190811b01905550565b838152826020820152606060408201526000610d186060830184610955565b95945050505050565b600060018201610d4157634e487b7160e01b600052601160045260246000fd5b506001019056fe60a060405234801561001057600080fd5b5060405161137e38038061137e83398101604081905261002f91610084565b600080546001600160a01b0319166001600160a01b03861617905560808390526001829055426003556002610064828261020d565b50505050506102cb565b634e487b7160e01b600052604160045260246000fd5b6000806000806080858703121561009a57600080fd5b84516001600160a01b03811681146100b157600080fd5b60208601516040870151606088015192965090945092506001600160401b038111156100dc57600080fd5b8501601f810187136100ed57600080fd5b80516001600160401b038111156101065761010661006e565b604051601f8201601f19908116603f011681016001600160401b03811182821017156101345761013461006e565b60405281815282820160200189101561014c57600080fd5b60005b8281101561016b5760208185018101518383018201520161014f565b5060006020838301015280935050505092959194509250565b600181811c9082168061019857607f821691505b6020821081036101b857634e487b7160e01b600052602260045260246000fd5b50919050565b601f82111561020857806000526020600020601f840160051c810160208510156101e55750805b601f840160051c820191505b8181101561020557600081556001016101f1565b50505b505050565b81516001600160401b038111156102265761022661006e565b61023a816102348454610184565b846101be565b6020601f82116001811461026e57600083156102565750848201515b600019600385901b1c1916600184901b178455610205565b600084815260208120601f198516915b8281101561029e578785015182556020948501946001909201910161027e565b50848210156102bc5786840151600019600387901b60f8161c191681555b50505050600190811b01905550565b60805161106e6103106000396000818161039401528181610abe01528181610af901528181610c7901528181610d2401528181610e330152610e78015261106e6000f3fe6080604052600436106101355760003560e01c806378e97925116100ab578063aaf7e7041161006f578063aaf7e70414610382578063b99a07ae146103b6578063e12f3a61146103cb578063e8b5e51f146103eb578063ed473477146103f3578063fbb27dce1461040857600080fd5b806378e97925146102e75780637c3a00fd146102fd5780637d9953111461031357806397372bd2146103405780639a2356c11461036d57600080fd5b8063402d8883116100fd578063402d888314610227578063438596321461022f57806358829c251461027a57806358eb0af21461029c5780635a43dc00146102b15780636681b9fd146102d157600080fd5b8063013cf08b1461013a5780630c042367146101895780630d61b519146101ad5780631d143848146101cf5780633b4d01a714610207575b600080fd5b34801561014657600080fd5b5061015a610155366004610ea3565b610422565b6040805195865260208601949094529284019190915215156060830152608082015260a0015b60405180910390f35b34801561019557600080fd5b5061019f60055481565b604051908152602001610180565b3480156101b957600080fd5b506101cd6101c8366004610ea3565b610469565b005b3480156101db57600080fd5b506000546101ef906001600160a01b031681565b6040516001600160a01b039091168152602001610180565b34801561021357600080fd5b5061015a610222366004610ea3565b610686565b6101cd6106df565b34801561023b57600080fd5b5061026a61024a366004610ed8565b600a60209081526000928352604080842090915290825290205460ff1681565b6040519015158152602001610180565b34801561028657600080fd5b5061028f610808565b6040516101809190610f04565b3480156102a857600080fd5b506101cd610896565b3480156102bd57600080fd5b506101cd6102cc366004610ea3565b6109d3565b3480156102dd57600080fd5b5061019f60045481565b3480156102f357600080fd5b5061019f60035481565b34801561030957600080fd5b5061019f60015481565b34801561031f57600080fd5b5061019f61032e366004610f52565b60086020526000908152604090205481565b34801561034c57600080fd5b5061019f61035b366004610f52565b60096020526000908152604090205481565b34801561037957600080fd5b5061026a610c12565b34801561038e57600080fd5b5061019f7f000000000000000000000000000000000000000000000000000000000000000081565b3480156103c257600080fd5b5061019f610c26565b3480156103d757600080fd5b5061019f6103e6366004610f52565b610c57565b6101cd610cd9565b3480156103ff57600080fd5b5061019f610e00565b34801561041457600080fd5b5060065461026a9060ff1681565b6007818154811061043257600080fd5b6000918252602090912060059091020180546001820154600283015460038401546004909401549294509092909160ff9091169085565b60006007828154811061047e5761047e610f6d565b9060005260206000209060050201905080600401544210156104da5760405162461bcd60e51b815260206004820152601060248201526f159bdd1a5b99c81b9bdd08195b99195960821b60448201526064015b60405180910390fd5b600381015460ff161561052f5760405162461bcd60e51b815260206004820152601960248201527f50726f706f73616c20616c72656164792065786563757465640000000000000060448201526064016104d1565b806002015481600101541161057e5760405162461bcd60e51b8152602060048201526015602482015274141c9bdc1bdcd85b081b9bdd08185c1c1c9bdd9959605a1b60448201526064016104d1565b60038101805460ff191660011790558054600580546000906105a1908490610f99565b90915550506000805482546040516001600160a01b03909216918381818185875af1925050503d80600081146105f3576040519150601f19603f3d011682016040523d82523d6000602084013e6105f8565b606091505b50509050806106495760405162461bcd60e51b815260206004820152601960248201527f5472616e7366657220746f20697373756572206661696c65640000000000000060448201526064016104d1565b815460405190815283907ff758fc91e01b00ea6b4a6138756f7f28e021f9bf21db6dbf8c36c88eb737257a906020015b60405180910390a2505050565b600080600080600080600787815481106106a2576106a2610f6d565b600091825260209091206005909102018054600182015460028301546003840154600490940154929b919a50985060ff9092169650945092505050565b600034116107275760405162461bcd60e51b8152602060048201526015602482015274052657061796d656e74206d757374206265203e203605c1b60448201526064016104d1565b6000610731610e00565b905061073b610e00565b346004546107499190610fb2565b11156107a15760405162461bcd60e51b815260206004820152602160248201527f52657061796d656e74206578636565647320726571756972656420616d6f756e6044820152601d60fa1b60648201526084016104d1565b34600460008282546107b39190610fb2565b90915550506004548190036107d0576006805460ff191660011790555b60405134815233907f0516911bcc3a0a7412a44601057c0a0a1ec628bde049a84284bc4288665344889060200160405180910390a250565b6002805461081590610fc5565b80601f016020809104026020016040519081016040528092919081815260200182805461084190610fc5565b801561088e5780601f106108635761010080835404028352916020019161088e565b820191906000526020600020905b81548152906001019060200180831161087157829003601f168201915b505050505081565b60006108a133610c57565b9050600081116108ec5760405162461bcd60e51b81526020600482015260166024820152754e6f2072657061796d656e747320746f20636c61696d60501b60448201526064016104d1565b336000908152600960205260408120805483929061090b908490610fb2565b9091555050604051600090339083908381818185875af1925050503d8060008114610952576040519150601f19603f3d011682016040523d82523d6000602084013e610957565b606091505b505090508061099a5760405162461bcd60e51b815260206004820152600f60248201526e151c985b9cd9995c8819985a5b1959608a1b60448201526064016104d1565b60405182815233907f3c51ce109e61c835935dcee49cbad64e570216c533f73310f0762ffb51ee67159060200160405180910390a25050565b6000546001600160a01b03163314610a1e5760405162461bcd60e51b815260206004820152600e60248201526d2737ba103a34329034b9b9bab2b960911b60448201526064016104d1565b60008111610a635760405162461bcd60e51b81526020600482015260126024820152710416d6f756e74206d757374206265203e20360741b60448201526064016104d1565b600554811115610ab55760405162461bcd60e51b815260206004820152601b60248201527f496e73756666696369656e742066756e647320696e766573746564000000000060448201526064016104d1565b6000610ae2600a7f0000000000000000000000000000000000000000000000000000000000000000610fff565b8211610af257506203f480610b3f565b6064610b1f7f00000000000000000000000000000000000000000000000000000000000000006032611021565b610b299190610fff565b8211610b39575062069780610b3f565b5062093a805b600780546040805160a081018252858152600060208201819052918101829052606081019190915290919060808101610b788542610fb2565b905281546001808201845560009384526020938490208351600590930201918255928201519281019290925560408101516002830155606081015160038301805460ff191691151591909117905560800151600490910155807fa6a21b90631faacde52b977eb6e15e5707522fbbba8eddef55ed173ffde48efa84610bfd8542610fb2565b60408051928352602083019190915201610679565b6000610c1c610e00565b6004541015905090565b600080610c31610e00565b90508060045410610c4457600091505090565b600454610c519082610f99565b91505090565b6004546001600160a01b038216600090815260086020526040812054909182917f000000000000000000000000000000000000000000000000000000000000000091610ca291611021565b610cac9190610fff565b6001600160a01b038416600090815260096020526040902054909150610cd29082610f99565b9392505050565b60003411610d225760405162461bcd60e51b81526020600482015260166024820152750496e766573746d656e74206d757374206265203e20360541b60448201526064016104d1565b7f000000000000000000000000000000000000000000000000000000000000000060055410610d8c5760405162461bcd60e51b8152602060048201526016602482015275119d5b991a5b99c81d185c99d95d081c995858da195960521b60448201526064016104d1565b3360009081526008602052604081208054349290610dab908490610fb2565b925050819055503460056000828254610dc49190610fb2565b909155505060405134815233907fc3f75dfc78f6efac88ad5abb5e606276b903647d97b2a62a1ef89840a658bbc39060200160405180910390a2565b60065460009060ff1615610e145750600090565b600060035442610e249190610f99565b9050600063bbf81e00826001547f0000000000000000000000000000000000000000000000000000000000000000610e5c9190611021565b610e669190611021565b610e709190610fff565b9050610e9c817f0000000000000000000000000000000000000000000000000000000000000000610fb2565b9250505090565b600060208284031215610eb557600080fd5b5035919050565b80356001600160a01b0381168114610ed357600080fd5b919050565b60008060408385031215610eeb57600080fd5b82359150610efb60208401610ebc565b90509250929050565b602081526000825180602084015260005b81811015610f325760208186018101516040868401015201610f15565b506000604082850101526040601f19601f83011684010191505092915050565b600060208284031215610f6457600080fd5b610cd282610ebc565b634e487b7160e01b600052603260045260246000fd5b634e487b7160e01b600052601160045260246000fd5b81810381811115610fac57610fac610f83565b92915050565b80820180821115610fac57610fac610f83565b600181811c90821680610fd957607f821691505b602082108103610ff957634e487b7160e01b600052602260045260246000fd5b50919050565b60008261101c57634e487b7160e01b600052601260045260246000fd5b500490565b8082028115828204841417610fac57610fac610f8356fea26469706673582212204525ca3956756b476b5f7dd93593b89488a4f99b94f654623366431ec4c454b964736f6c634300081a0033a26469706673582212201f5d1a3e18a38b782da47aef04322274fb4184d8fd0c37323f62cd5bf7c9031f64736f6c634300081a0033",
        "linkReferences": {}
    },
    "methodIdentifiers": {
        "activeBonds(address)": "444e503b",
        "bonds(uint256)": "5f1c17c0",
        "createBond(uint256,uint256,string)": "bf027540",
        "currentBondId()": "7541addc",
        "getBondDetails(uint256)": "0436f2f6",
        "getBondPoolAddress(address)": "ad39837c",
        "getRemainingBondRepayment(address)": "2a6f2312",
        "kycRegistry()": "4b155b97",
        "owner()": "8da5cb5b",
        "renounceOwnership()": "715018a6",
        "transferOwnership(address)": "f2fde38b"
    },
    "id": 2
}